S013000050726F796563746F312E332E737265632A
S11300000C9434000C9451000C9451000C94510045
S11300100C9451000C9451000C9451000C94510018
S11300200C9451000C9451000C9451000C94510008
S11300300C9451000C9451000C9451000C945100F8
S11300400C9451000C9451000C9451000C945100E8
S11300500C9451000C9451000C9451000C945100D8
S11300600C94F8000C94510011241FBECFEFD8E07B
S1130070DEBFCDBF11E0A0E0B1E0ECE2F8E002C0E9
S113008005900D92A230B107D9F721E0A2E0B1E0CA
S113009001C01D92A330B207E1F70E94E5000C9461
S11300A014040C940000ECE7F0E01082808180647A
S11300B0808380818F778083808180628083EAE778
S11300C0F0E01082808180688083808181608083F9
S11300D0808182608083808184608083EEE7F0E0A9
S11300E08081816080838081826080830895ECE7D1
S11300F0F0E09081907F892B8083EAE7F0E08081B3
S11301008064808380917A0086FDFCCF80917900A1
S113011090E0089580E48093BA0085EC8093BC005D
S1130120089585EC8093BC0008952FE13EE448E0F7
S113013050E066E070E080E090E00E942D0140E035
S113014054E063E070E080E090E00E94DC010895F8
S11301500F974CF48EE49CE00E94D70185E190E077
S11301600E946E0208958CEE93E10E94D70186E00E
S113017090E00E946E020895893529F08A3541F095
S1130180883511F50AC084E690E00E94A80008951D
S113019080E090E00E94A8000895072E000C880BD0
S11301A0990B0E941B0320E030E04FE753E40E94C8
S11301B0710220E030E048EC52E40E94A7030E9460
S11301C0E302CB010E94A80008950E948A000E94C5
S11301D053000E949500789480E00E947700682F75
S11301E0809300018091020170E00E94BC00F4CF72
S11301F01F920F920FB60F9211242F933F934F9398
S11302005F936F937F938F939F93AF93BF93EF937A
S1130210FF938091B900887F803819F0883A31F0D3
S113022009C08091BB008093020104C08091000149
S11302308093BB000E949100FF91EF91BF91AF9119
S11302409F918F917F916F915F914F913F912F91EA
S11302500F900FBE0F901F901895F90134B13260C2
S113026034B91092800010928100892B31F4A0E8F7
S1130270B0E08C9180688C9305C0A0E8B0E08C91CC
S1130280806C8C936115710559F4A0E8B0E08C91F1
S113029081608C93A1E8B0E08C9188608C9352C00B
S11302A06130710559F4A0E8B0E08C9182608C93C0
S11302B0A1E8B0E08C9188608C9344C062307105F1
S11302C059F4A0E8B0E08C9183608C93A1E8B0E08D
S11302D08C9188608C9336C06330710531F4A0E84A
S11302E0B0E08C9181608C932DC06430710531F441
S11302F0A0E8B0E08C9182608C9324C065307105D5
S113030031F4A0E8B0E08C9183608C931BC066301C
S1130310710559F4A0E8B0E08C9182608C93A1E857
S1130320B0E08C9188618C930DC06730710551F4F5
S1130330A0E8B0E08C9182608C93A1E8B0E08C914D
S113034080618C9340345105E1F03CF44115510532
S113035061F04830510579F025C0411581E0580716
S1130360B1F041155440C9F01DC0A1E8B0E08C9132
S113037081608C9317C0A1E8B0E08C9182608C936B
S113038011C0A1E8B0E08C9183608C930BC0A1E80C
S1130390B0E08C9184608C9305C0A1E8B0E08C91AE
S11303A085608C93F0938700E09386000895909382
S11303B0890080938800089524B1286024B910929C
S11303C0B0001092B100892B31F4E0EBF0E08081B1
S11303D08068808305C0E0EBF0E08081806C8083DE
S11303E06130710531F4E0EBF0E08081816080835D
S11303F044C06230710531F4E0EBF0E0808182604A
S113040080833BC06330710531F4E0EBF0E0808120
S11304108360808332C06430710531F4E1EBF0E035
S113042080818860808329C06530710559F4E0EBD0
S1130430F0E0808181608083E1EBF0E0808188607E
S113044080831BC06630710559F4E0EBF0E08081D5
S113045082608083E1EBF0E08081886080830DC05E
S11304606730710551F4E0EBF0E0808183608083B4
S1130470E1EBF0E080818860808340345105E1F055
S11304803CF44115510561F04830510579F0089567
S1130490411581E05807B1F041155440C9F0089561
S11304A0E1EBF0E08081816080830895E1EBF0E08E
S11304B08081826080830895E1EBF0E08081836035
S11304C080830895E1EBF0E0808184608083089567
S11304D0E1EBF0E080818760808308958093B3002E
S11304E008950E9485020C946D030E94660358F0DF
S11304F00E945F0340F029F45F3F29F00C945603F7
S113050051110C94A1030C945C030E947E0368F3C4
S11305109923B1F3552391F3951B550BBB27AA27B8
S113052062177307840738F09F5F5F4F220F331FF2
S1130530441FAA1FA9F335D00E2E3AF0E0E832D0BA
S113054091505040E695001CCAF72BD0FE2F29D0BD
S1130550660F771F881FBB1F261737074807AB078F
S1130560B0E809F0BB0B802DBF01FF2793585F4F04
S11305703AF09E3F510578F00C9456030C94A10375
S11305805F3FE4F3983ED4F3869577956795B795E6
S1130590F7959F5FC9F7880F911D9695879597F9F1
S11305A00895E1E0660F771F881FBB1F621773076A
S11305B08407BA0720F0621B730B840BBA0BEE1F7F
S11305C088F7E09508950E94EA026894B1110C94AA
S11305D0A10308950E94860388F09F5798F0B92FCD
S11305E09927B751B0F0E1F0660F771F881F991F64
S11305F01AF0BA95C9F714C0B13091F00E94A00363
S1130600B1E008950C94A003672F782F8827B85F72
S113061039F0B93FCCF3869577956795B395D9F7BB
S11306203EF490958095709561957F4F8F4F9F4FC5
S11306300895E89409C097FB3EF4909580957095D1
S113064061957F4F8F4F9F4F9923A9F0F92F96E91A
S1130650BB279395F695879577956795B795F1118F
S1130660F8CFFAF4BB0F11F460FF1BC06F5F7F4F2C
S11306708F4F9F4F16C0882311F096E911C077233E
S113068021F09EE8872F762F05C0662371F096E847
S1130690862F70E060E02AF09A95660F771F881F16
S11306A0DAF7880F9695879597F9089597F99F67D4
S11306B080E870E060E008959FEF80EC08950024E6
S11306C00A941616170618060906089500240A94B3
S11306D012161306140605060895092E0394000C39
S11306E011F4882352F0BB0F40F4BF2B11F460FFC8
S11306F004C06F5F7F4F8F4F9F4F089557FD9058F1
S1130700440F551F59F05F3F71F04795880F97FBD1
S1130710991F61F09F3F79F087950895121613068B
S11307201406551FF2CF4695F1DF08C016161706BA
S11307301806991FF1CF86957105610508940895EF
S1130740E894BB2766277727CB0197F908950E9481
S1130750BA030C946D030E945F0338F00E94660391
S113076020F0952311F00C9456030C945C0311248F
S11307700C94A1030E947E0370F3959FC1F3950F1F
S113078050E0551F629FF001729FBB27F00DB11D11
S1130790639FAA27F00DB11DAA1F649F6627B00DA1
S11307A0A11D661F829F2227B00DA11D621F739F8A
S11307B0B00DA11D621F839FA00D611D221F749F98
S11307C03327A00D611D231F849F600D211D822FDF
S11307D0762F6A2F11249F5750409AF0F1F0882306
S11307E04AF0EE0FFF1FBB1F661F771F881F915033
S11307F05040A9F79E3F510580F00C9456030C9489
S1130800A1035F3FE4F3983ED4F38695779567950B
S1130810B795F795E7959F5FC1F7FE2B880F911D5C
S10F08209695879597F90895F894FFCFFA
S105082C0100C5
S9030000FC
