S013000050726F796563746F312E332E737265632A
S11300000C9434000C9451000C9451000C94510045
S11300100C9451000C9451000C9451000C94510018
S11300200C9451000C9451000C9451000C94510008
S11300300C9451000C9451000C9451000C945100F8
S11300400C9451000C9451000C9451000C945100E8
S11300500C9451000C9451000C9451000C945100D8
S11300600C94A0000C94510011241FBECFEFD8E0D3
S1130070DEBFCDBF11E0A0E0B1E0E4EBF1E002C0EF
S113008005900D92A230B107D9F721E0A2E0B1E0CA
S113009001C01D92A330B207E1F70E9495000C94B1
S11300A0D8000C940000ECE7F0E0108280818064BA
S11300B0808380818F778083808180628083EAE778
S11300C0F0E01082808180688083808181608083F9
S11300D0808182608083808184608083EEE7F0E0A9
S11300E08081816080838081826080830895ECE7D1
S11300F0F0E09081907F892B8083EAE7F0E08081B3
S11301008064808380917A0086FDFCCF80917900A1
S113011090E0089580E48093BA0085EC8093BC005D
S1130120089585EC8093BC0008950E948A000E9483
S11301305300789480E00E94770080930001FACF06
S11301401F920F920FB60F9211242F933F934F9348
S11301505F936F937F938F939F93AF93BF93EF932B
S1130160FF938091B900887F803819F0883A49F06C
S11301700CC08091BB00809302018091020185B97B
S113018004C0809100018093BB000E949100FF9104
S1130190EF91BF91AF919F918F917F916F915F91FB
S11301A04F913F912F910F900FBE0F901F90189574
S10701B0F894FFCFED
S10501B4010044
S9030000FC
