S013000050726F796563746F312E312E737265632C
S11300000C943C000C9459000C9459000C94590025
S11300100C9459000C9459000C9459000C945900F8
S11300200C9459000C9459000C9459000C945900E8
S11300300C9459000C9459000C9459000C945900D8
S11300400C9459000C9459000C946D020C945900B2
S11300500C9459000C9459000C9459000C945900B8
S11300600C9459000C9459009D02A402AC02B002F5
S1130070B402B802BC02C00211241FBECFEFD8E004
S1130080DEBFCDBF11E0A0E0B1E0E2E0F0E102C0EC
S113009005900D92AA34B107D9F721E0AAE4B1E0A2
S11300A001C01D92A836B207E1F70E9418010C9412
S11300B0FF070C9400001092B90088E48093B80004
S11300C084E08093BC00089584EA8093BC0080910E
S11300D0BC008823E4F7089584E98093BC00089564
S11300E08093BB0084E88093BC008091BC0088238B
S11300F0E4F7089584EC8093BC008091BC008823CD
S1130100E4F78091BB00089584E88093BC0080915B
S1130110BC008823E4F78091BB0008959BB19B7FCA
S11301209BB99BB1977F9BB9982F9F7095B99BB151
S11301309F70807F892B8BB985B1806185B985E0FB
S11301408A95F1F7000085B18F7E85B98FE39FE131
S11301500197F1F700C0000008958FEF8AB98FE18D
S113016084B98FE59AEE0197F1F700C0000080E3AF
S11301700E948E008FE19EE40197F1F700C0000019
S113018080E30E948E008FE891E00197F1F700C0B0
S1130190000080E30E948E0088E30E948E0088E0C5
S11301A00E948E0081E00E948E008FE39FE1019700
S11301B0F1F700C0000086E00E948E008CE00E94EF
S11301C08E0008959BB194609BB99BB1977F9BB9B6
S11301D0982F9F7095B99BB19F70807F892B8BB9A5
S11301E085B1806185B985E08A95F1F7000085B114
S11301F08F7E85B98FE39FE10197F1F700C000007E
S11302000895CF93DF93EC0103C00E94E20021968E
S113021088818111FACFDF91CF910895811103C0B4
S113022080E8860F02C080EC860F0E948E0008953D
S11302300E94AD000E945B000E94D70240E052EC95
S113024061E070E081E00E941E03789487B18160D0
S113025087B987B1826087B960E080E00E940E01AF
S113026082E091E00E94010160E081E00E940E01C1
S113027083E191E00E94010183E191E00E94010188
S113028062E081E00E940E0184E291E00E9401019B
S113029069E081E00E940E0187E291E00E94010181
S11302A080914B018130C9F580914A018333A1F0DB
S11302B018F4823331F04BC08633C9F0873311F11F
S11302C046C00E94640080E20E9470008AE50E9499
S11302D070000E946C003BC00E94640080E20E9497
S11302E0700089E50E9470000E946C0030C00E947A
S11302F0640080E40E9470008AE50E9470000E94FD
S11303006C0025C00E94640080E40E94700089E5AE
S11303100E9470000E946C001AC0811118C00E94D3
S1130320640080E20E94700088E50E9470000E94D0
S11303306C000E94640080E40E94700088E50E94C2
S113034070000E946C0089E291E00E9466030E94A2
S1130350640081E20E9470000E948400C82F0E9401
S11303606C00C0934D011F92CF93C0E3D1E0DF93A3
S1130370CF9388E591E09F938F930E94150560E0E9
S113038081E00E940E0188E591E00E9401010E9433
S1130390640081E40E9470000E948400182F0E946F
S11303A06C00612F70E080E090E00E94160420E071
S11303B030E041E653E40E94730320E030E048EC6F
S11303C052E40E94A2040E94E50360934C011F9230
S11303D06F93DF93CF9383E691E09F938F930E9473
S11303E0150566E081E00E940E0183E691E00E941B
S11303F001010E94F80220914B014DB75EB7445FA2
S11304005F4F0FB6F8945EBF0FBE4DBF2130A9F405
S113041020914A01253331F428B1216028B928B14B
S1130420226028B920914A012433B9F428B12E7FDF
S113043028B928B12D7F28B910C08536910538F424
S113044028B1216028B928B1226028B906C028B192
S11304502E7F28B928B12D7F28B99F938F9380E3ED
S113046091E09F938F938EE491E09F938F930E94EA
S113047015056CE081E00E940E018EE491E00E947B
S1130480010183E391E00E94660388E591E00E9404
S1130490660385E391E00E94660383E691E00E948F
S11304A0660388E391E00E9466038EE491E00E9473
S11304B0660387E491E00E9466035FEF81EE94E0B7
S11304C0515080409040E1F700C000000F900F9021
S11304D00F900F900F900F90CFCE1F920F920FB6E8
S11304E00F9211242F933F934F935F936F937F93B6
S11304F08F939F93AF93BF93EF93FF9381E090E02B
S113050090930101809300018091C6008093620161
S1130510809162018A30D1F1809162018D30B1F114
S1130520E09162018E2F90E0FC01F097E830F10534
S113053058F5EC5CFF4F0C940F0510924B018BE3C4
S113054091E00E94660322C081E080934B0181E424
S113055091E00E9466031AC082E380934A0116C0A8
S113056083E380934A0112C084E380934A010EC05E
S113057085E380934A010AC086E380934A0106C05A
S113058087E380934A0102C010924A01FF91EF91E0
S1130590BF91AF919F918F917F916F915F914F9197
S11305A03F912F910F900FBE0F901F9018950E94AE
S11305B0640082E790E00E94700080E890E00E946E
S11305C0700083E090E00E9470000E946C000E9422
S11305D0640082E790E00E94700081E890E00E944D
S11305E0700082E090E00E9470000E946C00089508
S11305F00F931F93CF93DF930E94640082E790E0F0
S11306000E9470008CE890E00E9470000E946400D8
S113061083E790E00E9470000E947A00182F0E94E5
S11306208400082F0E946C00D02F80E0C82FCE01D8
S1130630812BDF91CF911F910F9108959AB19E7FE5
S11306409AB99AB192609AB91092C0008823E9F0DD
S1130650E0ECF0E0808182608083403885E25807D6
S11306606105710531F48FEC90E09093C50080939F
S1130670C4004115524C61407105A1F480E190E041
S11306809093C5008093C4000DC01092C000403800
S113069055426105710531F487E690E09093C500F9
S11306A08093C400E1ECF0E010828081886980834B
S11306B0E2ECF0E01082808186608083089590915E
S11306C0C00095FFFCCF8093C6000895CF93DF93BD
S11306D0EC0103C00E945F03219688818111FACF47
S11306E0DF91CF9108950E9487030C9468040E94BF
S11306F0610458F00E945A0440F029F45F3F29F045
S11307000C94510451110C949C040C9457040E94B1
S1130710790468F39923B1F3552391F3951B550B91
S1130720BB27AA2762177307840738F09F5F5F4FC0
S1130730220F331F441FAA1FA9F335D00E2E3AF0FF
S1130740E0E832D091505040E695001CCAF72BD017
S1130750FE2F29D0660F771F881FBB1F2617370768
S11307604807AB07B0E809F0BB0B802DBF01FF279A
S113077093585F4F3AF09E3F510578F00C94510422
S11307800C949C045F3FE4F3983ED4F386957795EC
S11307906795B795F7959F5FC9F7880F911D969553
S11307A0879597F90895E1E0660F771F881FBB1FAF
S11307B0621773078407BA0720F0621B730B840B5C
S11307C0BA0BEE1F88F7E09508950E94810488F023
S11307D09F5798F0B92F9927B751B0F0E1F0660F01
S11307E0771F881F991F1AF0BA95C9F714C0B13042
S11307F091F00E949B04B1E008950C949B04672F30
S1130800782F8827B85F39F0B93FCCF38695779570
S11308106795B395D9F73EF4909580957095619559
S11308207F4F8F4F9F4F0895E89409C097FB3EF484
S113083090958095709561957F4F8F4F9F4F992329
S1130840A9F0F92F96E9BB279395F69587957795A7
S11308506795B795F111F8CFFAF4BB0F11F460FF67
S11308601BC06F5F7F4F8F4F9F4F16C0882311F0BF
S113087096E911C0772321F09EE8872F762F05C0D3
S1130880662371F096E8862F70E060E02AF09A956E
S1130890660F771F881FDAF7880F9695879597F963
S11308A0089597F99F6780E870E060E008959FEFEE
S11308B080EC089500240A941616170618060906F3
S11308C0089500240A9412161306140605060895C2
S11308D0092E0394000C11F4882352F0BB0F40F44A
S11308E0BF2B11F460FF04C06F5F7F4F8F4F9F4F8A
S11308F0089557FD9058440F551F59F05F3F71F00C
S11309004795880F97FB991F61F09F3F79F0879572
S11309100895121613061406551FF2CF4695F1DFFB
S113092008C0161617061806991FF1CF869571058B
S1130930610508940895E894BB2766277727CB01BF
S113094097F908950E94B5040C9468040E945A040F
S113095038F00E94610420F0952311F00C945104A6
S11309600C94570411240C949C040E94790470F391
S1130970959FC1F3950F50E0551F629FF001729F40
S1130980BB27F00DB11D639FAA27F00DB11DAA1F4F
S1130990649F6627B00DA11D661F829F2227B00D9C
S11309A0A11D621F739FB00DA11D621F839FA00D27
S11309B0611D221F749F3327A00D611D231F849F77
S11309C0600D211D822F762F6A2F11249F575040CE
S11309D09AF0F1F088234AF0EE0FFF1FBB1F661F49
S11309E0771F881F91505040A9F79E3F510580F012
S11309F00C9451040C949C045F3FE4F3983ED4F3AC
S1130A00869577956795B795F795E7959F5FC1F7B5
S1130A10FE2B880F911D9695879597F90895EE0FF3
S1130A20FF1F0590F491E02D0994AEE0B0E0EBE1F6
S1130A30F5E00C94D6070D891E8986E08C831A8311
S1130A4009838FEF9FE79E838D83AE01475E5F4FDF
S1130A506F89788DCE0101960E943705EF81F88564
S1130A60E00FF11F10822E96E4E00C94F207ABE045
S1130A70B0E0EDE3F5E00C94C8076C017B018A015A
S1130A80FC0117821682838181FFCCC1CE010196BD
S1130A903C01F6019381F70193FD859193FF8191C8
S1130AA07F01882309F4BAC1853239F493FD859115
S1130AB093FF81917F01853229F4B60190E00E9471
S1130AC02E07E7CF912C212C312CFFE1F315D8F020
S1130AD08B3279F038F4803279F08332A1F4232D0B
S1130AE020611DC08D3261F0803369F4232D2160B3
S1130AF016C0832D8260382EE32DE4603E2E2AC07A
S1130B00F32DF8601DC037FC2DC020ED280F2A30CE
S1130B1040F08E32B9F436FC81C1232D2064322E8C
S1130B2019C036FE06C08AE0989E200D1124922E2C
S1130B3011C0EAE02E9E200D1124222EF32DF06226
S1130B403F2E08C08C3621F4832D8068382E02C0D5
S1130B50883641F4F70193FD859193FF81917F01DC
S1130B608111B3CF982F9F7D9554933028F40C5F57
S1130B701F4F9FE399830DC0833631F0833771F0A3
S1130B80833509F059C021C0F801808189830E5F43
S1130B901F4F88248394912C530113C02801F2E041
S1130BA04F0E511CF801A080B18036FE03C0692DA0
S1130BB070E002C06FEF7FEFC5010E9423074C0174
S1130BC08201F32DFF773F2E16C0280122E0420E4A
S1130BD0511CF801A080B18036FE03C0692D70E07D
S1130BE002C06FEF7FEFC5010E9418074C01F32D7F
S1130BF0F0683F2E820133FC1BC0822D90E08816E2
S1130C009906B0F4B60180E290E00E942E072A947F
S1130C10F4CFF50137FC859137FE81915F01B60170
S1130C2090E00E942E0721102A9421E0821A910854
S1130C308114910471F7E8C0843611F0893641F5C6
S1130C40F80137FE07C060817181828193810C5F56
S1130C501F4F08C060817181072E000C880B990B0F
S1130C600E5F1F4FF32DFF763F2E97FF09C090951F
S1130C708095709561957F4F8F4F9F4FF0683F2E01
S1130C802AE030E0A3010E946A07882E861845C036
S1130C90853731F4232D2F7EB22E2AE030E025C093
S1130CA0932D997FB92E8F36C1F018F4883579F0D9
S1130CB0B5C0803719F0883721F0B0C0E92FE06162
S1130CC0BE2EB4FE0DC0FB2DF460BF2E09C034FE51
S1130CD00AC0292F2660B22E06C028E030E005C0E5
S1130CE020E130E002C020E132E0F801B7FE07C0A5
S1130CF060817181828193810C5F1F4F06C0608186
S1130D00718180E090E00E5F1F4FA3010E946A078B
S1130D10882E8618FB2DFF773F2E36FE0DC0232D1F
S1130D202E7FA22E891458F434FE0BC032FC09C065
S1130D30832D8E7EA82E05C0B82CA32C03C0B82CFE
S1130D4001C0B92CA4FE0FC0FE01E80DF11D808185
S1130D50803321F49A2D997EA92E09C0A2FE06C0E3
S1130D60B394B39404C08A2D867809F0B394A3FC99
S1130D7011C0A0FE06C0B21488F4280C922C9B1853
S1130D800EC0B21460F4B60180E290E00E942E0717
S1130D90B394F7CFB21418F42B1802C0982C212C5A
S1130DA0A4FE10C0B60180E390E00E942E07A2FECC
S1130DB017C0A1FC03C088E790E002C088E590E07A
S1130DC0B6010CC08A2D867859F0A1FE02C08BE2D0
S1130DD001C080E2A7FC8DE2B60190E00E942E07DC
S1130DE0891438F4B60180E390E00E942E079A94A7
S1130DF0F7CF8A94F301E80DF11D8081B60190E0EC
S1130E000E942E078110F5CF222009F442CEB601AC
S1130E1080E290E00E942E072A94F6CFF6018681A4
S1130E20978102C08FEF9FEF2B96E2E10C94E407C9
S1130E30FC010590615070400110D8F780959095A1
S1130E408E0F9F1F0895FC016150704001900110A6
S1130E50D8F7809590958E0F9F1F08950F931F9339
S1130E60CF93DF93FB01238121FD03C08FEF9FEF1D
S1130E702CC022FF16C04681578124813581421738
S1130E80530744F4A081B1819D012F5F3F4F31830B
S1130E9020838C93268137812F5F3F4F37832683AE
S1130EA014C08B01EC01FB010084F185E02D099550
S1130EB0892BE1F6D80116968D919C91179701968E
S1130EC017969C938E931697CE01DF91CF911F9125
S1130ED00F910895FA01AA27283051F1203181F1A8
S1130EE0E8946F936E7F6E5F7F4F8F4F9F4FAF4F2E
S1130EF0B1E03ED0B4E03CD0670F781F891F9A1F41
S1130F00A11D680F791F8A1F911DA11D6A0F711DF4
S1130F10811D911DA11D20D009F468943F912AE000
S1130F20269F11243019305D3193DEF6CF010895E8
S1130F30462F4770405D4193B3E00FD0C9F7F6CF19
S1130F40462F4F70405D4A3318F0495D31FD4052E1
S1130F50419302D0A9F7EACFB4E0A6959795879577
S1130F6077956795BA95C9F7009761057105089556
S1130F709B01AC010A2E0694579547953795279502
S1130F80BA95C9F7620F731F841F951FA01D08959A
S1130F902F923F924F925F926F927F928F929F9285
S1130FA0AF92BF92CF92DF92EF92FF920F931F9373
S1130FB0CF93DF93CDB7DEB7CA1BDB0B0FB6F89424
S1130FC0DEBF0FBECDBF09942A88398848885F8464
S1130FD06E847D848C849B84AA84B984C884DF80D5
S1130FE0EE80FD800C811B81AA81B981CE0FD11DB9
S1130FF00FB6F894DEBF0FBECDBFED010895F8948F
S1051000FFCF1C
S1131002010054656D703A20416972653A204C754D
S11310127A3A002020202020202020202020202076
S113102220202000B043002500415554494F0A00B6
S11310322564005400204100204C004155544F0ABD
S10D1042004D414E55414C0A0000D8
S9030000FC
