S013000050726F796563746F312E312E737265632C
S11300000C9434000C9451000C9451000C94510045
S11300100C9451000C9451000C9451000C94510018
S11300200C9451000C9451000C9451000C94510008
S11300300C9451000C9451000C9451000C945100F8
S11300400C9451000C9451000C9451000C945100E8
S11300500C9451000C9451000C9451000C945100D8
S11300600C9451000C94510011241FBECFEFD8E022
S1130070DEBFCDBF11E0A0E0B1E0EEE1FEE002C0E2
S113008005900D92A433B107D9F721E0A4E3B1E0C0
S113009001C01D92AF34B207E1F70E9410010C9425
S11300A00D070C9400001092B90088E48093B80006
S11300B084E08093BC00089584EA8093BC0080911E
S11300C0BC008823E4F7089584E98093BC00089574
S11300D08093BB0084E88093BC008091BC0088239B
S11300E0E4F7089584EC8093BC008091BC008823DD
S11300F0E4F78091BB00089584E88093BC0080916C
S1130100BC008823E4F78091BB0008959BB19B7FDA
S11301109BB99BB1977F9BB9982F9F7095B99BB161
S11301209F70807F892B8BB985B1806185B985E00B
S11301308A95F1F7000085B18F7E85B98FE39FE141
S11301400197F1F700C0000008958FEF8AB98FE19D
S113015084B98FE59AEE0197F1F700C0000080E3BF
S11301600E9486008FE19EE40197F1F700C0000031
S113017080E30E9486008FE891E00197F1F700C0C8
S1130180000080E30E94860088E30E94860088E0E5
S11301900E94860081E00E9486008FE39FE1019720
S11301A0F1F700C0000086E00E9486008CE00E9407
S11301B0860008959BB194609BB99BB1977F9BB9CE
S11301C0982F9F7095B99BB19F70807F892B8BB9B5
S11301D085B1806185B985E08A95F1F7000085B124
S11301E08F7E85B98FE39FE10197F1F700C000008E
S11301F00895CF93DF93EC0103C00E94DA002196A7
S113020088818111FACFDF91CF910895811103C0C4
S113021080E8860F02C080EC860F0E948600089555
S11302200E94A5000E9453000E94EB0140E052ECA2
S113023061E070E081E00E94320287B1816087B999
S113024060E080E00E94060180E091E00E94F900F5
S113025060E081E00E94060181E191E00E94F900E2
S113026081E191E00E94F90062E081E00E940601D0
S113027082E291E00E94F90069E081E00E940601B7
S113028085E291E00E94F9000E945C0081E20E94F4
S113029068000E947C00C82F0E946400C09335014E
S11302A01F92CF93C7E2D1E0DF93CF9380E491E034
S11302B09F938F930E94230460E081E00E940601D3
S11302C080E491E00E94F9000E945C0081E40E94B5
S11302D068000E947C00182F0E946400612F70E067
S11302E080E090E00E942A0320E030E041E653E4FD
S11302F00E94870220E030E048EC52E40E94B603FA
S11303000E94F902609334011F926F93DF93CF939D
S11303108AE491E09F938F930E94230466E081E036
S11303200E9406018AE491E00E94F9000E940C02F6
S11303302DB73EB7245F3F4F0FB6F8943EBF0FBEB4
S11303402DBF8536910520F428B1216028B903C05A
S113035028B12E7F28B99F938F9387E291E09F93D2
S11303608F9386E391E09F938F930E9423046CE024
S113037081E00E94060186E391E00E94F9008AE28E
S113038091E00E947A0280E491E00E947A028CE279
S113039091E00E947A028AE491E00E947A028FE25C
S11303A091E00E947A0286E391E00E947A0282E35D
S11303B091E00E947A023FEF80E792E03150804062
S11303C09040E1F700C000000F900F900F900F9045
S11303D00F900F9045CF0E945C0082E790E00E944E
S11303E0680080E890E00E94680083E090E00E944A
S11303F068000E9464000E945C0082E790E00E9412
S1130400680081E890E00E94680082E090E00E9429
S113041068000E94640008950F931F93CF93DF93A5
S11304200E945C0082E790E00E9468008CE890E003
S11304300E9468000E945C0083E790E00E946800CC
S11304400E947200182F0E947C00082F0E946400F2
S1130450D02F80E0C82FCE01812BDF91CF911F9147
S11304600F9108959AB19E7F9AB99AB192609AB900
S11304701092C0008823E9F0E0ECF0E08081826013
S11304808083403885E258076105710531F48FECAB
S113049090E09093C5008093C4004115524C614094
S11304A07105A1F480E190E09093C5008093C400AD
S11304B00DC01092C000403855426105710531F4F9
S11304C087E690E09093C5008093C400E1ECF0E0EF
S11304D01082808188698083E2ECF0E01082808160
S11304E08660808308959091C00095FFFCCF80932F
S11304F0C6000895CF93DF93EC0103C00E947302FA
S1130500219688818111FACFDF91CF9108950E94BD
S11305109B020C947C030E94750358F00E946E03A6
S113052040F029F45F3F29F00C94650351110C94B9
S1130530B0030C946B030E948D0368F39923B1F309
S1130540552391F3951B550BBB27AA2762177307F5
S1130550840738F09F5F5F4F220F331F441FAA1F89
S1130560A9F335D00E2E3AF0E0E832D09150504045
S1130570E695001CCAF72BD0FE2F29D0660F771FF3
S1130580881FBB1F261737074807AB07B0E809F0D9
S1130590BB0B802DBF01FF2793585F4F3AF09E3F5E
S11305A0510578F00C9465030C94B0035F3FE4F3B9
S11305B0983ED4F3869577956795B795F7959F5FA1
S11305C0C9F7880F911D9695879597F90895E1E0ED
S11305D0660F771F881FBB1F621773078407BA074C
S11305E020F0621B730B840BBA0BEE1F88F7E095A7
S11305F008950E94950388F09F5798F0B92F992782
S1130600B751B0F0E1F0660F771F881F991F1AF0F9
S1130610BA95C9F714C0B13091F00E94AF03B1E0AC
S113062008950C94AF03672F782F8827B85F39F0AB
S1130630B93FCCF3869577956795B395D9F73EF492
S113064090958095709561957F4F8F4F9F4F08953A
S1130650E89409C097FB3EF4909580957095619558
S11306607F4F8F4F9F4F9923A9F0F92F96E9BB270E
S11306709395F695879577956795B795F111F8CF8A
S1130680FAF4BB0F11F460FF1BC06F5F7F4F8F4FF5
S11306909F4F16C0882311F096E911C0772321F0EB
S11306A09EE8872F762F05C0662371F096E8862F83
S11306B070E060E02AF09A95660F771F881FDAF7DA
S11306C0880F9695879597F9089597F99F6780E81D
S11306D070E060E008959FEF80EC089500240A9490
S11306E01616170618060906089500240A94121609
S11306F01306140605060895092E0394000C11F43C
S1130700882352F0BB0F40F4BF2B11F460FF04C0E8
S11307106F5F7F4F8F4F9F4F089557FD9058440F41
S1130720551F59F05F3F71F04795880F97FB991F4C
S113073061F09F3F79F08795089512161306140609
S1130740551FF2CF4695F1DF08C016161706180696
S1130750991FF1CF86957105610508940895E89471
S1130760BB2766277727CB0197F908950E94C90311
S11307700C947C030E946E0338F00E94750320F0F1
S1130780952311F00C9465030C946B0311240C94C1
S1130790B0030E948D0370F3959FC1F3950F50E051
S11307A0551F629FF001729FBB27F00DB11D639F1F
S11307B0AA27F00DB11DAA1F649F6627B00DA11DC5
S11307C0661F829F2227B00DA11D621F739FB00D6B
S11307D0A11D621F839FA00D611D221F749F3327DB
S11307E0A00D611D231F849F600D211D822F762F74
S11307F06A2F11249F5750409AF0F1F088234AF051
S1130800EE0FFF1FBB1F661F771F881F91505040BC
S1130810A9F79E3F510580F00C9465030C94B00336
S11308205F3FE4F3983ED4F3869577956795B79543
S1130830F795E7959F5FC1F7FE2B880F911D96955D
S1130840879597F90895AEE0B0E0E9E2F4E00C94FE
S1130850E4060D891E8986E08C831A8309838FEF51
S11308609FE79E838D83AE01475E5F4F6F89788DCE
S1130870CE0101960E944504EF81F885E00FF11F37
S113088010822E96E4E00C940007ABE0B0E0EBE4B9
S1130890F4E00C94D6066C017B018A01FC011782FA
S11308A01682838181FFCCC1CE0101963C01F60101
S11308B09381F70193FD859193FF81917F018823B3
S11308C009F4BAC1853239F493FD859193FF81917E
S11308D07F01853229F4B60190E00E943C06E7CFFF
S11308E0912C212C312CFFE1F315D8F08B3279F0C7
S11308F038F4803279F08332A1F4232D20611DC0B5
S11309008D3261F0803369F4232D216016C0832D6C
S11309108260382EE32DE4603E2E2AC0F32DF86069
S11309201DC037FC2DC020ED280F2A3040F08E3238
S1130930B9F436FC81C1232D2064322E19C036FE51
S113094006C08AE0989E200D1124922E11C0EAE080
S11309502E9E200D1124222EF32DF0623F2E08C06E
S11309608C3621F4832D8068382E02C0883641F4F9
S1130970F70193FD859193FF81917F018111B3CF9D
S1130980982F9F7D9554933028F40C5F1F4F9FE35D
S113099099830DC0833631F0833771F0833509F0C4
S11309A059C021C0F801808189830E5F1F4F8824BC
S11309B08394912C530113C02801F2E04F0E511C73
S11309C0F801A080B18036FE03C0692D70E002C03A
S11309D06FEF7FEFC5010E9431064C018201F32DB8
S11309E0FF773F2E16C0280122E0420E511CF80169
S11309F0A080B18036FE03C0692D70E002C06FEFA5
S1130A007FEFC5010E9426064C01F32DF0683F2EAE
S1130A10820133FC1BC0822D90E088169906B0F445
S1130A20B60180E290E00E943C062A94F4CFF501DE
S1130A3037FC859137FE81915F01B60190E00E94F9
S1130A403C0621102A9421E0821A91088114910411
S1130A5071F7E8C0843611F0893641F5F80137FEA4
S1130A6007C060817181828193810C5F1F4F08C030
S1130A7060817181072E000C880B990B0E5F1F4F4C
S1130A80F32DFF763F2E97FF09C0909580957095C2
S1130A9061957F4F8F4F9F4FF0683F2E2AE030E0E3
S1130AA0A3010E947806882E861845C0853731F444
S1130AB0232D2F7EB22E2AE030E025C0932D997F7E
S1130AC0B92E8F36C1F018F4883579F0B5C0803767
S1130AD019F0883721F0B0C0E92FE061BE2EB4FED2
S1130AE00DC0FB2DF460BF2E09C034FE0AC0292FAF
S1130AF02660B22E06C028E030E005C020E130E0D8
S1130B0002C020E132E0F801B7FE07C060817181C4
S1130B10828193810C5F1F4F06C06081718180E0E8
S1130B2090E00E5F1F4FA3010E947806882E86185E
S1130B30FB2DFF773F2E36FE0DC0232D2E7FA22ED8
S1130B40891458F434FE0BC032FC09C0832D8E7E08
S1130B50A82E05C0B82CA32C03C0B82C01C0B92CF6
S1130B60A4FE0FC0FE01E80DF11D8081803321F445
S1130B709A2D997EA92E09C0A2FE06C0B394B394FF
S1130B8004C08A2D867809F0B394A3FC11C0A0FE9A
S1130B9006C0B21488F4280C922C9B180EC0B21410
S1130BA060F4B60180E290E00E943C06B394F7CF73
S1130BB0B21418F42B1802C0982C212CA4FE10C0D7
S1130BC0B60180E390E00E943C06A2FE17C0A1FC9F
S1130BD003C088E790E002C088E590E0B6010CC04D
S1130BE08A2D867859F0A1FE02C08BE201C080E212
S1130BF0A7FC8DE2B60190E00E943C06891438F40B
S1130C00B60180E390E00E943C069A94F7CF8A9460
S1130C10F301E80DF11D8081B60190E00E943C06CD
S1130C208110F5CF222009F442CEB60180E290E093
S1130C300E943C062A94F6CFF6018681978102C071
S1130C408FEF9FEF2B96E2E10C94F206FC010590E6
S1130C50615070400110D8F7809590958E0F9F1FBA
S1130C600895FC016150704001900110D8F78095FF
S1130C7090958E0F9F1F08950F931F93CF93DF932B
S1130C80FB01238121FD03C08FEF9FEF2CC022FFC6
S1130C9016C046815781248135814217530744F495
S1130CA0A081B1819D012F5F3F4F318320838C93BD
S1130CB0268137812F5F3F4F3783268314C08B01F2
S1130CC0EC01FB010084F185E02D0995892BE1F607
S1130CD0D80116968D919C911797019617969C931F
S1130CE08E931697CE01DF91CF911F910F910895A6
S1130CF0FA01AA27283051F1203181F1E8946F9349
S1130D006E7F6E5F7F4F8F4F9F4FAF4FB1E03ED0EE
S1130D10B4E03CD0670F781F891F9A1FA11D680F8C
S1130D20791F8A1F911DA11D6A0F711D811D911DBF
S1130D30A11D20D009F468943F912AE0269F112434
S1130D403019305D3193DEF6CF010895462F477098
S1130D50405D4193B3E00FD0C9F7F6CF462F4F70F3
S1130D60405D4A3318F0495D31FD4052419302D051
S1130D70A9F7EACFB4E0A6959795879577956795F7
S1130D80BA95C9F700976105710508959B01AC01F7
S1130D900A2E06945795479537952795BA95C9F71E
S1130DA0620F731F841F951FA01D08952F923F92F9
S1130DB04F925F926F927F928F929F92AF92BF9267
S1130DC0CF92DF92EF92FF920F931F93CF93DF9313
S1130DD0CDB7DEB7CA1BDB0B0FB6F894DEBF0FBE70
S1130DE0CDBF09942A88398848885F846E847D84BD
S1130DF08C849B84AA84B984C884DF80EE80FD80BF
S1130E000C811B81AA81B981CE0FD11D0FB6F89434
S1110E10DEBF0FBECDBFED010895F894FFCFF5
S1130E1E54656D703A20416972653A204C757A3A80
S1130E2E00202020202020202020202020202020D0
S1130E3E2000B0430025002564005400204100200A
S1070E4E4C000A0046
S9030000FC
