:100000000C948F000C94A1000C94A1000C94A100FE
:100010000C94A1000C94A1000C94A1000C94A100DC
:100020000C94A1000C94A1000C94A1000C94A100CC
:100030000C94A1000C94A1000C94A1000C94A100BC
:100040000C94A1000C94E4000C94A1000C94A10069
:100050000C94A1000C94A1000C94A1000C94A1009C
:100060000C94A1000C94A100C201C501C801CB01F0
:10007000CE01D101D401D701DA01DD01E001E301B4
:10008000E601E901EC01EF010E0111011401170174
:100090001A011D012001230126012901F201F201AB
:1000A000F201F201F201F201F201040109012C0155
:1000B0002F013201350138013B013E01410144016C
:1000C00047014A014D0150015301560159015C019C
:1000D0005F016201650168016B016E017101F2014E
:1000E000F201F201F201F201F201740177017A01E9
:1000F0007D0180018301860189018C018F019201BC
:10010000950198019B019E01A101A401A701AA01EB
:10011000AD01B001B301B601B901BC01BF011124A9
:100120001FBECFEFD8E0DEBFCDBF21E0A0E0B1E041
:1001300001C01D92A130B207E1F70E94DA000C94D1
:1001400017020C940000ECE7F0E0108280818064DC
:10015000808380818F778083808180628083EAE7DB
:10016000F0E010828081806880838081816080835C
:10017000808182608083808184608083EEE7F0E00C
:100180008081816080838081826080830895ECE734
:10019000F0E09081907F892B8083EAE7F0E0808116
:1001A0008064808380917A0086FDFCCF8091790005
:1001B00090E008950E9405020E94A3001092C100E1
:1001C00078948FEF8AB9FFCF1F920F920FB60F92DC
:1001D00011242F933F934F935F936F937F938F934C
:1001E0009F93AF93BF93EF93FF93EEB5E09300011E
:1001F0008E2F90E0FC01B097EB35F10508F0F2C0CE
:10020000EC5CFF4F0C94110280E00E94C7008EBD91
:10021000EBC081E00E94C7008EBDE6C080E38BB9D1
:10022000E3C081E38BB9E0C082E38BB9DDC083E337
:100230008BB9DAC084E38BB9D7C085E38BB9D4C05E
:1002400086E38BB9D1C087E38BB9CEC088E38BB985
:10025000CBC089E38BB9C8C083E48BB9C5C084E443
:100260008BB9C2C085E48BB9BFC086E48BB9BCC072
:1002700087E48BB9B9C088E48BB9B6C089E48BB97F
:10028000B3C08AE48BB9B0C08BE48BB9ADC08CE449
:100290008BB9AAC08DE48BB9A7C08EE48BB9A4C07A
:1002A0008FE48BB9A1C080E58BB99EC081E58BB985
:1002B0009BC082E58BB998C083E58BB995C084E576
:1002C0008BB992C085E58BB98FC086E58BB98CC0A0
:1002D00087E58BB989C088E58BB986C089E58BB97C
:1002E00083C08AE58BB980C081E68BB97DC082E688
:1002F0008BB97AC083E68BB977C084E68BB974C0BA
:1003000085E68BB971C086E68BB96EC087E68BB97E
:100310006BC088E68BB968C089E68BB965C08AE690
:100320008BB962C08BE68BB95FC08CE68BB95CC0C1
:100330008DE68BB959C08EE68BB956C08FE68BB966
:1003400053C080E78BB950C081E78BB94DC082E7BD
:100350008BB94AC083E78BB947C084E78BB944C0E7
:1003600085E78BB941C086E78BB93EC087E78BB97B
:100370003BC088E78BB938C089E78BB935C08AE7BD
:100380008BB932C080E28BB92FC081E28BB92CC00F
:1003900082E28BB929C083E28BB926C084E28BB993
:1003A00023C085E28BB920C086E28BB91DC087E2ED
:1003B0008BB91AC088E28BB917C089E28BB914C017
:1003C0008AE28BB911C08BE28BB90EC08CE28BB97B
:1003D0000BC08DE28BB908C08EE28BB905C08FE2ED
:1003E0008BB902C081E18EBDFF91EF91BF91AF91BA
:1003F0009F918F917F916F915F914F913F912F913D
:100400000F900FBE0F901F90189584B1837D84B913
:1004100084B1806184B980EC8CBD8CB5837F8CBD48
:100420000895EE0FFF1F0590F491E02D0994F894C4
:02043000FFCFFC
:00000001FF
