S013000050726F796563746F312E322E737265632B
S11300000C9434000C9451000C9451000C94510045
S11300100C9451000C9451000C9451000C94510018
S11300200C9451000C9451000C9451000C94510008
S11300300C9451000C9451000C9451000C945100F8
S11300400C9451000C9451000C9451000C945100E8
S11300500C9451000C9451000C9451000C945100D8
S11300600C9412010C94510011241FBECFEFD8E060
S1130070DEBFCDBF11E0A0E0B1E0E2E9F2E002C0F2
S113008005900D92A230B107D9F721E0A2E0B1E0CA
S113009001C01D92A830B207E1F70E94EA000C9457
S11300A047010C94000087B1816087B988B18E7FC5
S11300B088B92FEF80EE90E0215080409040E1F726
S11300C000C0000088B1816088B92AE62A95F1F75A
S11300D000C0089587B18E7F87B98AE68A95F1F7C3
S11300E000C0309913C08FE391E00197F1F700C08D
S11300F0000096B1892F817090FF09C08FE391E0D1
S11301000197F1F700C0000081E0089580E00895B0
S113011020E030E080E012C0309BFECF95ED9A9550
S1130120F1F70000309B05C090E0880F991F8160B3
S113013001C0880F3099FECF2F5F3F4F2830310523
S11301405CF3089584B1816084B985B18E7F85B9EB
S11301500E9453000E946A00882371F10E94880063
S1130160809302010E948800809304010E94880009
S1130170809303010E948800809306010E948800F6
S113018080930501909102012091040130E0290F30
S1130190311D90910301290F311D90910601290F02
S11301A0311D90E02817390721F485B1816085B9A4
S11301B003C085B18E7F85B980910301089580E2E3
S11301C08093BA0085EC8093BC00089585EC8093FD
S11301D0BC0008950E94DF00789484B1836084B9E0
S11301E085B18C7F85B90E94A20080930001909113
S11301F00701993529F09A3539F09835A1F708C0E7
S113020085B18C7F85B9EFCF85B1826085B9EBCF9D
S11302108F3120F085B1826085B9E5CF85B18C7FBF
S113022085B9E1CF1F920F920FB60F9211242F932D
S11302303F934F935F936F937F938F939F93AF936A
S1130240BF93EF93FF938091B900887F803819F0B2
S1130250883A31F009C08091BB008093070104C043
S1130260809100018093BB000E94E600FF91EF9112
S1130270BF91AF919F918F917F916F915F914F91BA
S11302803F912F910F900FBE0F901F901895F894E7
S1050290FFCF9A
S1050292010065
S9030000FC
