:100000000C9434000C9451000C9451000C94510049
:100010000C9451000C9451000C9451000C9451001C
:100020000C9451000C9451000C9451000C9451000C
:100030000C9451000C9451000C9451000C945100FC
:100040000C9451000C9451000C9451000C945100EC
:100050000C9451000C9451000C9451000C945100DC
:100060000C94F2000C94510011241FBECFEFD8E085
:10007000DEBFCDBF11E0A0E0B1E0E8E5F2E002C0F4
:1000800005900D92A230B107D9F721E0A2E0B1E0CE
:1000900001C01D92A830B207E1F70E94EA000C945B
:1000A0002A010C94000087B1816087B988B18E7FE6
:1000B00088B92FEF80EE90E0215080409040E1F72A
:1000C00000C0000088B1816088B92AE62A95F1F75E
:1000D00000C0089587B18E7F87B98AE68A95F1F7C7
:1000E00000C0309913C08FE391E00197F1F700C091
:1000F000000096B1892F817090FF09C08FE391E0D5
:100100000197F1F700C0000081E0089580E00895B4
:1001100020E030E080E012C0309BFECF95ED9A9554
:10012000F1F70000309B05C090E0880F991F8160B7
:1001300001C0880F3099FECF2F5F3F4F2830310527
:100140005CF3089584B1816084B985B18E7F85B9EF
:100150000E9453000E946A00882371F10E94880067
:10016000809302010E948800809304010E9488000D
:10017000809303010E948800809306010E948800FA
:1001800080930501909102012091040130E0290F34
:10019000311D90910301290F311D90910601290F06
:1001A000311D90E02817390721F485B1816085B9A8
:1001B00003C085B18E7F85B980910301089580E2E7
:1001C0008093BA0085EC8093BC00089585EC809301
:1001D000BC0008950E94DF0078940E94A2008093E2
:1001E0000001FBCF1F920F920FB60F9211242F9395
:1001F0003F934F935F936F937F938F939F93AF93AF
:10020000BF93EF93FF938091B900887F803819F0F6
:10021000883A49F00CC08091BB008093070180911F
:10022000070185B904C0809100018093BB000E9442
:10023000E600FF91EF91BF91AF919F918F917F91D8
:100240006F915F914F913F912F910F900FBE0F9043
:080250001F901895F894FFCFF0
:020258000100A3
:00000001FF
