S01400004C61626F7261746F72696F322E7372656360
S11300000C9434000C9451000C9451000C94510045
S11300100C9451000C9451000C9451000C94510018
S11300200C9451000C9451000C9451000C94510008
S11300300C9451000C9451000C9451000C945100F8
S11300400C9451000C9451000C94D7010C94510061
S11300500C9451000C9451000C9451000C945100D8
S11300600C9451000C94510011241FBECFEFD8E022
S1130070DEBFCDBF11E0A0E0B1E0E4ECFFE002C0E0
S113008005900D92A032B107D9F721E0A0E2B1E0CA
S113009001C01D92A535B207E1F70E9415010C9429
S11300A0E0070C940000ECE7F0E0108280818064AB
S11300B0808380818F77808380818F7D8083EAE74E
S11300C0F0E01082808180688083808181608083F9
S11300D0808182608083808184608083EEE7F0E0A9
S11300E08081816080838081826080830895ECE7D1
S11300F0F0E09081907F892B8083EAE7F0E08081B3
S11301008064808380917A0086FDFCCF80917800A2
S11301109091790008959BB19B7F9BB99BB1977F88
S11301209BB9982F9F7095B99BB19F70807F892B45
S11301308BB985B1806185B985E08A95F1F70000B6
S113014085B18F7E85B98FE39FE10197F1F700C0F8
S1130150000008958FEF8AB98FE184B98FE59AEE94
S11301600197F1F700C0000080E30E948B008FE14B
S11301709EE40197F1F700C0000080E30E948B0029
S11301808FE891E00197F1F700C0000080E30E943E
S11301908B0088E30E948B0088E00E948B0081E042
S11301A00E948B008FE39FE10197F1F700C00000EC
S11301B086E00E948B008CE00E948B0008959BB126
S11301C094609BB99BB1977F9BB9982F9F7095B909
S11301D09BB19F70807F892B8BB985B1806185B974
S11301E085E08A95F1F7000085B18F7E85B98FE3AC
S11301F09FE10197F1F700C000000895CF93DF93CA
S1130200EC0103C00E94DF00219688818111FACF9E
S1130210DF91CF910895811103C080E8860F02C059
S113022080EC860F0E948B0008950E9453000E9468
S1130230AA0080E80E948B0082E091E00E94FE0008
S113024060E875E281E00E948502789480E00E9473
S11302507700BC0180E090E00E94CB0320E030E016
S113026040EA50E40E94590420E030EC4FE754E4A3
S11302700E94230360932601709327018093280131
S11302809093290122E030E04AE351E00E94EF011B
S113029081E00E947700BC0180E090E00E94CB03E3
S11302A020E030E040EA50E40E94590420E030ECC1
S11302B04FE754E40E9423036093220170932301C7
S11302C0809324019093250122E030E04AE251E03A
S11302D00E94EF0160E081E00E940B018AE391E05B
S11302E00E94FE0064E081E00E940B0184E191E041
S11302F00E94FE0066E081E00E940B018AE291E028
S11303000E94FE006AE081E00E940B0184E191E01A
S11303100E94FE0027C0809154018B3219F08D3267
S113032079F01CC080912001909121010196909355
S1130330210180932001109201011092000112C04A
S11303408091200190912101019790932101809344
S11303502001109201011092000104C010920101C9
S1130360109200018091000190910101019799F28E
S1130370809121018F93809120018F9386E191E0F8
S11303809F938F938AE491E09F938F930E94F60446
S11303906CE081E00E940B018AE491E00E94FE007F
S11303A00F900F900F900F900F900F904FCF1F92C0
S11303B00F920FB60F9211248F939F9381E090E0D8
S11303C090930101809300018091C60080935401B1
S11303D09F918F910F900FBE0F901F9018954F9281
S11303E05F926F927F928F929F92AF92BF92CF92C1
S11303F0DF92EF92FF920F931F93CF93DF93CDB7CA
S1130400DEB7A0970FB6F894DEBF0FBECDBF6B0169
S11304107C01942E852E59010E9495032B013C01E9
S1130420072E000C880B990B0E94CD039B01AC0195
S1130430C701B6010E94B6026B017C015F924F9224
S113044086E191E09F938F931F9280E18F93CE0179
S113045001969F938F930E94C6040FB6F894DEBF53
S11304600FBECDBF00E010E00CC020E030E040E261
S113047051E4C701B6010E9459046B017C010F5F6E
S11304801F4F0A151B058CF3C701B6010E94950383
S11304907F936F9386E191E09F938F931F9280E106
S11304A08F938E010F5E1F4F1F930F930E94C604FC
S11304B01F930F93CE0101969F938F9389E191E04F
S11304C09F938F931F9280E28F938F929F920E94AB
S11304D0C6040FB6F894DEBF0FBECDBFA0960FB60C
S11304E0F894DEBF0FBECDBFDF91CF911F910F9166
S11304F0FF90EF90DF90CF90BF90AF909F908F9040
S11305007F906F905F904F9008959AB19E7F9AB9B3
S11305109AB192609AB91092C000882379F0E0EC05
S1130520F0E08081826080836038754291F48FECC2
S113053090E09093C5008093C4000BC01092C0005B
S11305406038754231F487E690E09093C50080935B
S1130550C400E1ECF0E01082808188698083E2ECE1
S1130560F0E0108280818660808308955058BB2714
S1130570AA270E94CE020C941F040E94110438F092
S11305800E94180420F039F49F3F19F426F40C94C7
S11305900E040EF4E095E7FB0C940804E92F0E9486
S11305A0300458F3BA17620773078407950720F0DD
S11305B079F4A6F50C9452040EF4E0950B2EBA2FA0
S11305C0A02D0B01B90190010C01CA01A001112455
S11305D0FF27591B99F0593F50F4503E68F11A1601
S11305E0F040A22F232F342F4427585FF3CF469592
S11305F037952795A795F0405395C9F77EF41F16B4
S1130600BA0B620B730B840BBAF09150A1F0FF0F7D
S1130610BB1F661F771F881FC2F70EC0BA0F621F69
S1130620731F841F48F4879577956795B795F79559
S11306309E3F08F0B0CF9395880F08F09927EE0FEE
S11306409795879508950E9437030C941F040E9480
S1130650180458F00E94110440F029F45F3F29F077
S11306600C94080451110C9453040C940E040E942D
S1130670300468F39923B1F3552391F3951B550B7B
S1130680BB27AA2762177307840738F09F5F5F4F61
S1130690220F331F441FAA1FA9F335D00E2E3AF0A0
S11306A0E0E832D091505040E695001CCAF72BD0B8
S11306B0FE2F29D0660F771F881FBB1F2617370709
S11306C04807AB07B0E809F0BB0B802DBF01FF273B
S11306D093585F4F3AF09E3F510578F00C9408040C
S11306E00C9453045F3FE4F3983ED4F386957795D6
S11306F06795B795F7959F5FC9F7880F911D9695F4
S1130700879597F90895E1E0660F771F881FBB1F4F
S1130710621773078407BA0720F0621B730B840BFC
S1130720BA0BEE1F88F7E09508950E949C03689425
S1130730B1110C94530408950E94380488F09F5713
S113074098F0B92F9927B751B0F0E1F0660F771FF1
S1130750881F991F1AF0BA95C9F714C0B13091F0E7
S11307600E945204B1E008950C945204672F782F2C
S11307708827B85F39F0B93FCCF3869577956795AC
S1130780B395D9F73EF490958095709561957F4F18
S11307908F4F9F4F0895E89409C097FB3EF49095BE
S11307A08095709561957F4F8F4F9F4F9923A9F046
S11307B0F92F96E9BB279395F695879577956795D5
S11307C0B795F111F8CFFAF4BB0F11F460FF1BC019
S11307D06F5F7F4F8F4F9F4F16C0882311F096E9AC
S11307E011C0772321F09EE8872F762F05C066235A
S11307F071F096E8862F70E060E02AF09A95660F13
S1130800771F881FDAF7880F9695879597F90895CB
S113081097F99F6780E870E060E008959FEF80ECAF
S1130820089500240A941616170618060906089552
S113083000240A9412161306140605060895092EB8
S11308400394000C11F4882352F0BB0F40F4BF2B27
S113085011F460FF04C06F5F7F4F8F4F9F4F089567
S113086057FD9058440F551F59F05F3F71F047955D
S1130870880F97FB991F61F09F3F79F08795089542
S1130880121613061406551FF2CF4695F1DF08C061
S1130890161617061806991FF1CF8695710561057E
S11308A008940895E894BB2766277727CB0197F926
S11308B008950E946C040C941F040E94110438F0E3
S11308C00E94180420F0952311F00C9408040C9451
S11308D00E0411240C9453040E94300470F3959F69
S11308E0C1F3950F50E0551F629FF001729FBB2723
S11308F0F00DB11D639FAA27F00DB11DAA1F649FBF
S11309006627B00DA11D661F829F2227B00DA11D71
S1130910621F739FB00DA11D621F839FA00D611DF7
S1130920221F749F3327A00D611D231F849F600D18
S1130930211D822F762F6A2F11249F5750409AF041
S1130940F1F088234AF0EE0FFF1FBB1F661F771FCD
S1130950881F91505040A9F79E3F510580F00C9498
S113096008040C9453045F3FE4F3983ED4F3869553
S113097077956795B795F795E7959F5FC1F7FE2B38
S1130980880F911D9695879597F90895AEE0B0E08C
S1130990ECECF4E00C94B7070D891E898F89988DCF
S11309A026E02C831A83098397FF02C080E090E835
S11309B001979E838D83AE01455E5F4F698D7A8D6D
S11309C0CE0101960E9418054D815E8157FD0AC033
S11309D02F813885421753070CF49A01F801E20F6E
S11309E0F31F10822E96E4E00C94D307AEE0B0E03F
S11309F0ECEFF4E00C94B7070D891E8986E08C8334
S1130A001A8309838FEF9FE79E838D83AE01475E30
S1130A105F4F6F89788DCE0101960E941805EF8192
S1130A20F885E00FF11F10822E96E4E00C94D307B2
S1130A30ABE0B0E0EEE1F5E00C94A9076C017B01BA
S1130A408A01FC0117821682838181FFCCC1CE0109
S1130A5001963C01F6019381F70193FD859193FF83
S1130A6081917F01882309F4BAC1853239F493FD59
S1130A70859193FF81917F01853229F4B60190E03D
S1130A800E940F07E7CF912C212C312CFFE1F315A5
S1130A90D8F08B3279F038F4803279F08332A1F4D3
S1130AA0232D20611DC08D3261F0803369F4232D24
S1130AB0216016C0832D8260382EE32DE4603E2E23
S1130AC02AC0F32DF8601DC037FC2DC020ED280F7F
S1130AD02A3040F08E32B9F436FC81C1232D2064D3
S1130AE0322E19C036FE06C08AE0989E200D1124CD
S1130AF0922E11C0EAE02E9E200D1124222EF32DF9
S1130B00F0623F2E08C08C3621F4832D8068382E85
S1130B1002C0883641F4F70193FD859193FF8191DA
S1130B207F018111B3CF982F9F7D9554933028F482
S1130B300C5F1F4F9FE399830DC0833631F08337D9
S1130B4071F0833509F059C021C0F801808189838F
S1130B500E5F1F4F88248394912C530113C02801E6
S1130B60F2E04F0E511CF801A080B18036FE03C0A4
S1130B70692D70E002C06FEF7FEFC5010E9404078A
S1130B804C018201F32DFF773F2E16C0280122E08D
S1130B90420E511CF801A080B18036FE03C0692DBD
S1130BA070E002C06FEF7FEFC5010E94F9064C01AF
S1130BB0F32DF0683F2E820133FC1BC0822D90E0A0
S1130BC088169906B0F4B60180E290E00E940F07FF
S1130BD02A94F4CFF50137FC859137FE81915F01AA
S1130BE0B60190E00E940F0721102A9421E0821A96
S1130BF091088114910471F7E8C0843611F08936A4
S1130C0041F5F80137FE07C06081718182819381CB
S1130C100C5F1F4F08C060817181072E000C880B88
S1130C20990B0E5F1F4FF32DFF763F2E97FF09C0E0
S1130C3090958095709561957F4F8F4F9F4FF06889
S1130C403F2E2AE030E0A3010E944B07882E86182D
S1130C5045C0853731F4232D2F7EB22E2AE030E0B3
S1130C6025C0932D997FB92E8F36C1F018F488359D
S1130C7079F0B5C0803719F0883721F0B0C0E92F7A
S1130C80E061BE2EB4FE0DC0FB2DF460BF2E09C082
S1130C9034FE0AC0292F2660B22E06C028E030E0B8
S1130CA005C020E130E002C020E132E0F801B7FEE7
S1130CB007C060817181828193810C5F1F4F06C0E0
S1130CC06081718180E090E00E5F1F4FA3010E945C
S1130CD04B07882E8618FB2DFF773F2E36FE0DC05E
S1130CE0232D2E7FA22E891458F434FE0BC032FC1F
S1130CF009C0832D8E7EA82E05C0B82CA32C03C05A
S1130D00B82C01C0B92CA4FE0FC0FE01E80DF11DE2
S1130D108081803321F49A2D997EA92E09C0A2FEE8
S1130D2006C0B394B39404C08A2D867809F0B394B2
S1130D30A3FC11C0A0FE06C0B21488F4280C922CA7
S1130D409B180EC0B21460F4B60180E290E00E94D9
S1130D500F07B394F7CFB21418F42B1802C0982CD1
S1130D60212CA4FE10C0B60180E390E00E940F077E
S1130D70A2FE17C0A1FC03C088E790E002C088E58A
S1130D8090E0B6010CC08A2D867859F0A1FE02C00D
S1130D908BE201C080E2A7FC8DE2B60190E00E94E4
S1130DA00F07891438F4B60180E390E00E940F071E
S1130DB09A94F7CF8A94F301E80DF11D8081B6016E
S1130DC090E00E940F078110F5CF222009F442CE53
S1130DD0B60180E290E00E940F072A94F6CFF60154
S1130DE08681978102C08FEF9FEF2B96E2E10C94EE
S1130DF0C507FC010590615070400110D8F780953B
S1130E0090958E0F9F1F0895FC01615070400190D2
S1130E100110D8F7809590958E0F9F1F08950F931A
S1130E201F93CF93DF93FB01238121FD03C08FEF39
S1130E309FEF2CC022FF16C0468157812481358143
S1130E404217530744F4A081B1819D012F5F3F4FA6
S1130E50318320838C93268137812F5F3F4F3783E3
S1130E60268314C08B01EC01FB010084F185E02D85
S1130E700995892BE1F6D80116968D919C911797C7
S1130E80019617969C938E931697CE01DF91CF917E
S1130E901F910F910895FA01AA27283051F12031AA
S1130EA081F1E8946F936E7F6E5F7F4F8F4F9F4FFA
S1130EB0AF4FB1E03ED0B4E03CD0670F781F891F3C
S1130EC09A1FA11D680F791F8A1F911DA11D6A0F0A
S1130ED0711D811D911DA11D20D009F468943F91BD
S1130EE02AE0269F11243019305D3193DEF6CF01BC
S1130EF00895462F4770405D4193B3E00FD0C9F782
S1130F00F6CF462F4F70405D4A3318F0495D31FDEE
S1130F104052419302D0A9F7EACFB4E0A695979541
S1130F20879577956795BA95C9F700976105710517
S1130F3008959B01AC010A2E069457954795379561
S1130F402795BA95C9F7620F731F841F951FA01DBB
S1130F5008952F923F924F925F926F927F928F9259
S1130F609F92AF92BF92CF92DF92EF92FF920F9334
S1130F701F93CF93DF93CDB7DEB7CA1BDB0B0FB63E
S1130F80F894DEBF0FBECDBF09942A8839884888FB
S1130F905F846E847D848C849B84AA84B984C88491
S1130FA0DF80EE80FD800C811B81AA81B981CE0F88
S1130FB0D11D0FB6F894DEBF0FBECDBFED0108956D
S1070FC0F894FFCFCF
S1130FC4010053313A20202053323A202020533355
S1130FD43A202000560025640025732E2573000052
S9030000FC
