:100000000C9434000C94A5000C94C1000C94510085
:100010000C9451000C9451000C9451000C9451001C
:100020000C9451000C9451000C9451000C9451000C
:100030000C9451000C9451000C9451000C945100FC
:100040000C9451000C9451000C9451000C945100EC
:100050000C9451000C9451000C9451000C945100DC
:100060000C946A000C94510011241FBECFEFD8E00D
:10007000DEBFCDBF11E0A0E0B1E0E8E1F2E002C0F8
:1000800005900D92A230B107D9F721E0A2E0B1E0CE
:1000900001C01D92A330B207E1F70E945E000C94EC
:1000A0000A010C94000080E48093BA0085EC8093F0
:1000B000BC00089585EC8093BC0008950E94530015
:1000C00081E00E94DC0081E00E94F30078948FEFD1
:1000D00084B9FFCF1F920F920FB60F9211242F9366
:1000E0003F934F935F936F937F938F939F93AF93C0
:1000F000BF93EF93FF938091B900887F803819F008
:10010000883A49F00FC08091BB0080930201809132
:10011000020185B907C0809100018093BB0082E095
:10012000809300010E945A00FF91EF91BF91AF911F
:100130009F918F917F916F915F914F913F912F91FF
:100140000F900FBE0F901F9018951F920F920FB631
:100150000F9211242F938F939F932FEF81EE94E0B2
:10016000215080409040E1F700C0000081E0809382
:1001700000019F918F912F910F900FBE0F901F90B4
:1001800018951F920F920FB60F9211242F938F93F1
:100190009F932FEF81EE94E0215080409040E1F753
:1001A00000C00000109200019F918F912F910F903D
:1001B0000FBE0F901F901895882331F0E9E6F0E00C
:1001C00080818360808305C0E9E6F0E08081826001
:1001D00080838BB184608BB98DB381608DBB8AB114
:1001E0008B7F8AB90895882331F0E9E6F0E08081B9
:1001F0008C60808305C0E9E6F0E0808188608083C0
:100200008BB188608BB98DB382608DBB8AB1877FDB
:080210008AB90895F894FFCFAC
:020218000200E2
:00000001FF
