S01400004C61626F7261746F72696F312E7372656361
S11300000C943E000C945B000C945B000C945C011B
S11300100C945B000C945B000C945B000C945B00F0
S11300200C945B000C945B000C945B000C945B00E0
S11300300C945B000C945B000C945B000C945B00D0
S11300400C945B000C945B000C945B000C945B00C0
S11300500C945B000C945B000C945B000C945B00B0
S11300600C945B000C945B0067006D0073007900D6
S11300707F0085008B00910097009D0011241FBE16
S1130080CFEFD8E0DEBFCDBF11E0A0E0B1E0EAE4FD
S1130090F4E002C005900D92AA30B107D9F721E02F
S11300A0AAE0B1E001C01D92A131B207E1F70E94BC
S11300B032010C9423020C94000090E08A309105E4
S11300C008F041C0FC01EC5CFF4F0C941D028EE76C
S11300D088B985B1806285B9089580E388B985B10E
S11300E08F7D85B908958DE688B985B1806285B91B
S11300F0089589E788B985B1806285B9089583E355
S113010088B985B18F7D85B908958BE588B985B1A6
S1130110806285B908958FE688B985B1806285B912
S1130120089580E788B985B1806285B908958FE71D
S113013088B985B1806285B908958BE788B985B19E
S1130140806285B9089518B885B18F7D85B9089501
S1130150813039F484B18E7F84B985B18E7F85B9BD
S113016006C084B18E7F84B985B1816085B9E8E623
S1130170F0E0808181608083EBE6F0E08081816043
S113018080830895813039F484B18D7F84B985B139
S11301908D7F85B906C084B18D7F84B985B18260B5
S11301A085B9E8E6F0E0808181608083EBE6F0E0E9
S11301B08081826080830895813039F484B18B7F9B
S11301C084B985B18B7F85B906C084B18B7F84B92E
S11301D085B1846085B9E8E6F0E080818160808340
S11301E0EBE6F0E0808184608083089510920D0135
S11301F010920E011092100110920F0108958F7049
S1130200962F9F702BB11BB82BB1822B8BB98BB15E
S113021020E1929FB0011124682B6BB90895E091FD
S11302200F01F0E0EE0FFF1FE050FF4F6081E091FF
S11302301001F0E0EE0FFF1FE050FF4F80810E949D
S1130240FF0080910E01823021F40E945D00109223
S1130250100180910E01813021F40E945D00109202
S11302600F01089580E00E94A80080E00E94C2006F
S113027080E00E94DC001092C1008FEF8AB987B938
S113028014B884B1806284B910920D01789480917D
S11302900D01882319F0813039F00BC00E94F6005B
S11302A081E080930C01F3CF0E940F0110920C01A6
S11302B0EECF10920D01EBCF1F920F920FB60F925B
S11302C011242F933F934F935F936F937F938F9357
S11302D09F93AF93BF93EF93FF932FEF81EE94E03F
S11302E0215080409040E1F700C0000018995AC0A6
S11302F080910D0181114CC085E00E945D002FEFBB
S113030089E698E1215080409040E1F700C0000068
S113031084E00E945D002FEF89E698E1215080403F
S11303209040E1F700C0000083E00E945D002FEFE1
S113033089E698E1215080409040E1F700C0000038
S113034082E00E945D002FEF89E698E12150804011
S11303509040E1F700C0000081E00E945D002FEFB3
S113036089E698E1215080409040E1F700C0000008
S113037080E00E945D002FEF89E698E121508040E3
S11303809040E1F700C000008AE00E945D0006C0D2
S11303901092100110920F0110920E0180910C0125
S11303A080930D0119991AC080910D018823C1F021
S11303B080910B01811114C080911001843018F4D4
S11303C08F5F8093100180911001843019F481E0D3
S11303D080930E0181E080930B0102C010920B0107
S11303E01A9918C080910D018823B1F080910A01F7
S11303F0811112C080910F01843040F48F5F80938B
S11304000F01843019F482E080930E0181E080931F
S11304100A0102C010920A01FF91EF91BF91AF91BE
S11304209F918F917F916F915F914F913F912F9108
S11304300F900FBE0F901F901895EE0FFF1F0590A1
S10D0440F491E02D0994F894FFCF25
S10D044A0000010002000400080095
S9030000FC
