S01400004C61626F7261746F72696F362E737265635C
S11300000C9434000C9446000C9446000C94460066
S11300100C9498000C9446000C9446000C944600F2
S11300200C9446000C9446000C9446000C94460034
S11300300C9446000C9446000C9446000C94460024
S11300400C9446000C9446000C9446000C94460014
S11300500C9446000C9446000C9446000C94460004
S11300600C9446000C94460011241FBECFEFD8E038
S1130070DEBFCDBF21E0A0E0B1E001C01D92A13000
S1130080B207E1F70E945F000C94F2000C940000A8
S113009097B1907C97B9813021F488B1807C88B97C
S11300A003C088B18F6388B9E8E6F0E0808182609C
S11300B08083ECE6F0E080818F638083089580E0A4
S11300C00E94480040E855E260E070E081E00E9450
S11300D0A7007894809100018823E1F32FEF81EE4B
S11300E094E0215080409040E1F700C00000309936
S11300F003C081E40E94EB00319903C082E40E94B2
S1130100EB00329903C085E50E94EB00339903C0EC
S113011084E40E94EB00349903C08CE40E94EB0059
S1130120359903C082E50E94EB0010920001D2CF02
S11301301F920F920FB60F9211248F9381E0809338
S113014000018F910F900FBE0F901F9018959AB1D8
S11301509E7F9AB99AB192609AB9882331F0E0EC03
S1130160F0E090819260908305C0E0ECF0E0908133
S11301709D7F9083403895E259076105710531F000
S11301804115524C6140710569F018C0882319F07B
S11301908FEC90E002C087E690E09093C5008093D6
S11301A0C40012C0882319F080E190E002C088E006
S11301B090E09093C5008093C40006C087E690E069
S11301C09093C5008093C40088E98093C10086E0C1
S11301D08093C20008959091C00095FFFCCF809356
S10B01E0C6000895F894FFCF56
S9030000FC
