:100000000C9434000C9446000C9446000C9446006A
:100010000C9446000C9446000C9446000C94460048
:100020000C9446000C9446000C9446000C94460038
:100030000C9446000C9446000C9446000C94460028
:100040000C9446000C9446000C9446000C94460018
:100050000C9446000C9446000C9446000C94460008
:100060000C9497000C94460011241FBECFEFD8E0EB
:10007000DEBFCDBF21E0A0E0B1E001C01D92A23003
:10008000B207E1F70E948A000C94CF000C940000A4
:10009000ECE7F0E0108280818064808380818F773C
:1000A0008083808180628083EAE7F0E01082808133
:1000B000806880838081816080838081826080838A
:1000C000808184608083EEE7F0E0808181608083BE
:1000D0008081826080830895ECE7F0E09081907FDA
:1000E000892B8083EAE7F0E08081806480838091BF
:1000F0007A0086FDFCCF8091790090E0089580E23F
:100100008093BA0085EC8093BC00089585EC8093C1
:10011000BC0008950E947F000E94480078948FEFF1
:100120008AB980E00E946C0080930001FACF1F9290
:100130000F920FB60F9211242F933F934F935F931B
:100140006F937F938F939F93AF93BF93EF93FF939F
:100150008091B900887F803819F0883A49F00CC046
:100160008091BB0080930101809101018BB904C093
:10017000809100018093BB000E948600FF91EF9167
:10018000BF91AF919F918F917F916F915F914F91AF
:100190003F912F910F900FBE0F901F901895F894DC
:0201A000FFCF8F
:00000001FF
